:10000000A89D002021DF000089D1000089D10000D7
:1000100089D1000089D1000089D1000089D1000078
:1000200089D1000089D1000089D1000089D1000068
:0C00300089D1000089D1000049D10000F6
:1000400053B94AB9002908BF00281CBF4FF0FF313F
:100050004FF0FF3000F00CB8ADF1080C6DE904CEA4
:100060000DF022F9DDF804E0DDE9022304B0704769
:10007000704700BF0000000000000000000000000A
:1000800001F0FF01102A2BDB10F0070F08D010F849
:10009000013B013A8B422DD010F0070F42B3F6D14D
:1000A000F0B441EA012141EA014122F007047FF066
:1000B00000070023F0E80256083C85EA010586EABD
:1000C000010685FA47F5A3FA87F586FA47F6A5FAF9
:1000D00087F68EB9EED1F0BC01F0FF0102F0070205
:1000E00032B110F8013B013A83EA010313B1F8D1B0
:1000F0000020704701387047002D06BF3546033891
:10010000073815F0010F07D1013015F4807F02BFC9
:10011000013015F4C03F0130F0BC0138704700BF1A
:10012000704700BF70B511F001061FD18B0700D4D6
:1001300070BD31461C2009F0B7FD31461D2009F085
:10014000B3FD31461E2009F0AFFD324638491C2070
:1001500009F06CFD324636491D2009F067FD324634
:100160003349BDE870401E2009F060BD05460021FE
:100170001C20144609F098FD00211D2009F094FD73
:1001800000211E2009F090FD284609F0A1F92388DE
:10019000B3F5C15F4FEAD0702FD043F60702934208
:1001A00015D040F60202934227D050BB21490022CD
:1001B0001C2009F03BFD1E4900221D2009F036FDE0
:1001C000BDE870401A4900221E2009F02FBD94F8A6
:1001D00024305A06E9D016490022D0B91C2009F073
:1001E00025FD134900221D2009F020FDBDE87040C7
:1001F000104900221E2009F019BDE37B5906EAD1FF
:10020000D3E70B492F221C2009F010FD08493222A8
:10021000D3E71C2009F00AFD054932221D2009F010
:1002200005FDBDE8704002492F221E2009F0FEBCEA
:10023000006000200160002070B504460D4616469F
:10024000FFF76EFF324629462046FFF76BFF70BD71
:1002500038B52B49142009F0ABFC0021142009F01B
:1002600023FD01200CF0AAFB0121142009F01CFD44
:100270004FF40C700CF0A2FB2149142009F098FCFB
:1002800020490A2009F094FC1E49092009F090FC3D
:100290001D49082009F08CFC0021142009F004FD00
:1002A0000724B92500210A2009F0FEFC45FA04F1D3
:1002B000092001F0010109F0F7FC01210A2009F0F1
:1002C000F3FC08200CF07AFB013CEBD200210A2061
:1002D00009F0EAFC0121142009F0E6FC4FF42F702C
:1002E0000CF06CFB142009F039FC0A2009F036FCF4
:1002F000092009F033FCBDE83840082009F02EBC85
:10030000016400200064002002200020704700BF2C
:1003100008B509F065FE0BF0F9FDFFF799FFFFF74F
:10032000F5FF08BD0649074B074891F808C00122B0
:100330000A724FF0030C197A80F814C01A727047D1
:10034000701A0020341A0020601B0020024A01218C
:10035000D0E906035160184700200940012070478A
:1003600008B5034C2368984763689847FAE700BFCD
:10037000C0E200002021EFF3118281F31188037C99
:10038000022B02D082F311887047436870B404686E
:100390001C60036844685C600024047483680C4833
:1003A000DD6CC4689E6934436E681D605E603360B6
:1003B0006B60C460012483F82040047482F31188C8
:1003C000EFF3118381F3118882F3118870BC7047B9
:1003D000341A002010B54FF0200EEFF3118C8EF37D
:1003E00011880C4A8368D168D86C9C6921434468A1
:1003F00018605C6023604360D160012183F82010A5
:1004000011748CF31188EFF311838EF311888CF340
:10041000118810BD341A002088B138B510F10804D5
:100420000BD2084A084B1068214605680822A847E5
:1004300018B1C0E90004083038BD002038BD0020E4
:10044000704700BF482500204C250020FEE700BF74
:100450002DE9F04F2A4C83B0D4F818A0E268B2FA24
:1004600082F1C1F11F01E369264D03EBC10321694C
:100470000091616995F814900191002701264FF0D1
:1004800020082EE0D0E90C21C36AD4F818B022610C
:10049000C4E90501036380F8287027722E7540F2C5
:1004A000000CEFF311828CF311884269D0E9060148
:1004B0009047EFF3118288F31188019BE268636132
:1004C000009B85F814902672C4F818B02361A2B17D
:1004D000B2FA82F1C1F11F01E36903EBC1039A454E
:1004E0000BD21868016819604B6019688B42C9D13A
:1004F000436A22EA0303E360C4E703B0BDE8F08F78
:10050000701A0020601B0020836D026C2DE9F04101
:10051000DFF86480C76D9E184FF00103C8F80430FF
:10052000436C044647EB0307350C0CF03FFAD8F850
:10053000303045EA0745EA1AB2F1004F0ED99D1D49
:100540000D4B9D61A8B1D4E91601E369A665C4E924
:100550001401E765A069BDE8F041184706335A1B4E
:10056000002AEDDB9D4238BF1D46034B9D610028EC
:10057000E9D10CF01FFAE6E7002009402DE9F04F21
:10058000334CE36883B0002B5CD040F2000CEFF3F7
:1005900011838CF311884FF02008EFF3118388F357
:1005A0001188D4F818A0E268B2FA82F1C1F11F01F3
:1005B000E36903EBC1039A4544D22169254D0091BB
:1005C000616995F814900191002701262EE0D0E989
:1005D0000C12C36AD4F818B02161C4E905020363A0
:1005E00080F8287027722E7540F2000CEFF311820C
:1005F0008CF311884269D0E906019047EFF311822C
:1006000088F31188019BE2686361009B85F8149070
:100610002672C4F818B02361A2B1B2FA82F1C1F116
:100620001F01E36903EBC1039A450BD21868016807
:1006300019604B6019689942C9D1436A22EA0303E1
:10064000E360C4E70023237203B0BDE8F08F00BF6E
:10065000701A0020601B00202DE9F04F202383B08A
:10066000EFF3118483F311884FF08053DFF8B4A1C6
:10067000D3F88C311B6B9847684BD3E91065324631
:100680002B46FFF7DDFC00228AF85D20DAF80830FF
:10069000DAF85470A7EB030EDAF8083006FB01F124
:1006A00005FB0015A0EB030C5C49A6FB00363544A6
:1006B000C1E91235E6454FF001038AF85C3000F2DB
:1006C0009580A0EB070B84F311889146DAF800407F
:1006D000CDF800B06668B4424F44ABEB090B4FF065
:1006E000FF3809D117E02B7D23B1EB68DB1B984560
:1006F00028BF9846A6420ED0254624682B7D002BA5
:10070000F8D0EB689F42EED12B6943B92B75D5E940
:1007100006309847E7E7C34505D3C146D6E7F81842
:10072000E8602B62F3E72023EFF3118283F3118853
:100730009AF85D3001929BB1DAF800305E68B342FE
:1007400050D04FF0FF3818461B68057D35B1057D48
:1007500025B1C068C01B804528BF80469E42F2D1AB
:10076000B8F1FF3F3ED0009BA9EB0306DAF8583002
:1007700046449E4228BF1E46BD19284CD4E910307D
:10078000A16CA3FB063213EB0108E36C06FB00220D
:1007900042EB03040CF00AF9214B4FEA184B1B6B98
:1007A0004BEA044BABEB0302B2F1004F25D903F146
:1007B000060B1B4BC3F818B060B3184BCAF8506057
:1007C000C3E9148401238AF85E3000238AF85C3080
:1007D000CAF85450019BCAF8087083F3118803B01B
:1007E000BDE8F08FDAF85860F519C6E78AF85C20A2
:1007F00084F3118803B0BDE8F08F0633A3EB0B023E
:10080000002AD6DB9B4538BF9B46054BC3F818B082
:100810000028D2D10CF0CEF8CFE700BF202900206D
:1008200000200940A01A00200CF098BA034A0346A1
:1008300092E8030083E80300704700BF601B0020BC
:100840000A207047F8B52023EFF3118683F311884F
:10085000027DB2B1C5680446EFF3118783F31188B6
:100860004FF08053D3F88C311B6B9847074BD3E97B
:100870001023FFF7E5FB87F31188236A281A9842B3
:1008800000D9002086F31188F8BD00BF2029002080
:10089000007D70470023C0E901330370704700BF3B
:1008A0008160704700230375704700BFB0F90E30B8
:1008B000002BB8BF5B420F2B10B420D9A3F110015D
:1008C0004A09920002F1E022012001F01F0100FA22
:1008D00001F1D2F80001C2F880110D4A0D48116AE9
:1008E00051F82340844218BF41F823004FEA830C9B
:1008F000536A5DF8044B002243F80C207047ECD19A
:100900004FF0E0221169116921F002011161E4E761
:10091000181B002089D100002023EFF3118083F3FE
:10092000118870470F280DD9103843099B0003F137
:10093000E02300F01F0001228240D3F80011C3F829
:100940000021704700D070474FF0E0231A691A6900
:1009500042F002021A6170472023EFF3118083F303
:10096000118880F31188B0FA80F04009704700BF09
:100970000F2804D94FF0E0231038C3F8000F704758
:100980004FF0200CEFF311838CF31188C0E90021A4
:1009900083F31188704700BF00214FF0FF3201231D
:1009A000C0E900120372704780F31188704700BFDE
:1009B00089B2418210B4012200F114040021C0E97F
:1009C00002128461027444612022EFF3118182F3E8
:1009D0001188064A02605468446054682060506080
:1009E00081F311885DF8044B704700BF981A00200E
:1009F00000F11403836120224361EFF3118382F33A
:100A0000118842680168116002684168516083F38F
:100A10001188704700234FF0FF32C0E90033C0E96E
:100A200002237047024B0122187A1A72704700BFE6
:100A3000701A0020014B1869704700BF701A00201F
:100A40000749084B0848012210B40C7A0A7207497A
:100A50000460187A5DF8044B08601A72704700BF92
:100A6000341A0020701A00208829002084290020D0
:100A7000014B1A78FDE700BF24250020014BDB69FC
:100A8000184700BF601B0020F8B5174ED6E910329A
:100A9000A3FB003400FB0244D6E912219D1844EB6D
:100AA00001040BF083FF114B2F0C1B6B47EA04472B
:100AB000FA1AB2F1004F06D99F1D0C4B9F6168B125
:100AC000C6E91454F8BD0633DA1B002AF5DB9F4251
:100AD00038BF1F46054B9F610028F1D10BF06AFF1C
:100AE000C6E91454F8BD00BF2029002000200940A9
:100AF00030B48468B0F90E20A507034602D5017B07
:100B00001F292BD824495868096A51F82250854278
:100B100018BF41F822005142D9810F2A197B0AD906
:100B2000103A02F1E020E40780F8001423D40020FA
:100B300030BC98607047032AF9D9101F00F1E020FB
:100B400080F8181DE0074FF0E021F0D50F2AEED114
:100B50000A690A6942F002020A61E8E70E49486A36
:100B600040F82230096A0D4851F82250854218BFDA
:100B700041F82200D1E75109890001F1E02101206B
:100B800002F01F0200FA02F2D1F80001C1F80021C0
:100B9000002030BC98607047181B00206DD000000A
:100BA000012931D0B0F90E30002BB8BF5B420F2BBA
:100BB00010B420D9A3F110014A09920002F1E022F9
:100BC000012001F01F0100FA01F1D2F80001C2F882
:100BD00080110E4A0E48116A51F82340844218BF12
:100BE00041F823004FEA830C536A5DF8044B00225E
:100BF00043F80C207047ECD14FF0E02211691169E5
:100C000021F002011161E4E7704700BF181B0020CA
:100C100089D1000030B42023EFF3118283F31188CF
:100C20001D4B1E4C196A1E4D4FF0E020C0F8081DE8
:100C3000D0F8080D5C611B4CDD61A042596309D0FE
:100C40000A46194900230E2B1FDD0133362B42F8CB
:100C5000041BF8D14FF0E0222020D2F80C3D23F401
:100C60007F4303F1BF6303F500334FF40071C2F813
:100C70000C3D82F8220DC2F8141DD2F8343F23F047
:100C8000404330BCC2F8343F704754F8230042F868
:100C9000040B0133D7E700BF181B0020A89D0020DC
:100CA000000600000000000089D100000F280FD9C5
:100CB000103843099B0003F1E02300F01F00D3F834
:100CC00000210121814002EA0100C3F88011704730
:100CD00001D0002070474FF0E02318691A6922F014
:100CE000020200F002001A61704700BF2DE9F041D6
:100CF0001D4604462023EFF3118783F31188674EC6
:100D0000B068002856D1B46087F31188002D3CD01C
:100D10006B68E261A36100224FF48033C4E90823C9
:100D200000220023C4E91223E160297BAB6801297A
:100D300002461F4677D1C4E91030636158482978CC
:100D4000406B0229056D3AD0C4E916320022002317
:100D5000C4E91423002936D1524B14209D42E08669
:100D600004F1280700F0938001213846FFF718FFAF
:100D70002022EFF3118382F3118883F31188237CFF
:100D8000002B60D00023B36016E00020E1604FF438
:100D90008031C4E9080100200021C4E91201424861
:100DA000414BA5610021C4E91001404DE26163613E
:100DB0000022C3E787F311880020BDE8F081C4E971
:100DC0001432C4E91632374B14209D42E08604F1F8
:100DD0002807C9D1FFF76AFF354A3649E02384F86E
:100DE00034300323C4E90A4223633846FFF780FE08
:100DF000002850D12022EFF3118382F3118883F36E
:100E00001188237C03B32022EFF3118382F311882E
:100E100026607268626072681460746083F311887F
:100E20002046BDE8F081244A19460023FFF708F95F
:100E3000224A6061C4E910014FF0FF310029BA4134
:100E40000346B5D2B8E700272023EFF3118583F3DB
:100E500011881B4B61694FF08052B1F5802FD2F899
:100E600084011A6B2CBF090C04210A444FF00108BD
:100E7000C3F804809A610368232100209847114B2E
:100E8000C3F8808285F31188002FBCD17AE7FFF781
:100E90000DFF0D4AA1E7811CACD066E7541B002072
:100EA000181B002089D1000037894100A4E200000E
:100EB0004D0300004C25002040420F003F420F0030
:100EC00000200940000024430905000070B5344AA1
:100ED000344C92F82430646001218AB084F86510A3
:100EE0002460C3B9D36982F8241003F1080003F128
:100EF00010015B601B60D8609860596103F11800B5
:100F0000196103F12001D86198615962196203F1F6
:100F10002801D9629962D069234B636128306064EB
:100F200022486062002105252020C4E90A11C4E995
:100F30000F11C4E90C502162236184F83810EFF3DB
:100F4000118580F31188A2615068E061566803F151
:100F500008003060506085F31188154D0091E364FE
:100F60000A23059302230391124A8DF80C30284678
:100F700003ABCDE90611CDE908110491FFF7B6FEE8
:100F8000D5E91023002047F69061FFF759F84FF09C
:100F9000FF33002918BF1846A0650AB070BD00BF16
:100FA000701A0020A01A0020B01A00205906000074
:100FB00020290020251B00002DE9F843214C646BFB
:100FC000074654F8215016461C4673B11E4B9D42ED
:100FD000D4E90098247A05D135291CDD0121384651
:100FE000FFF7DEFD0020BDE8F883174B9D42F9D1E5
:100FF0003529F3DCC1810846FFF758FEE0220323C0
:10100000C7E9004611493A73BB603846FFF770FDE7
:101010000028E7D011E0C18144F002040846FFF740
:1010200045FE0A497E60C7F8009087F80C80BC60D6
:101030003846FFF75DFD0028D4D0811CCFD10020B9
:10104000BDE8F883181B002089D100004C25002042
:101050002DE9F04F544A55499368097D1970D0E93C
:10106000055485B006690296D0E909BA066A01946A
:10107000C4690394D0E9008ED0E90B94D0E902C78B
:10108000C3E9046B029EC3E90C65019DC3E906A98F
:10109000C3E9088EC3E90AC79D63039DC3E90F54E2
:1010A00000F140045C64446B9C64D0E90E54D06849
:1010B000DD641C65032973D8DFE801F049433D0274
:1010C00000215469D5695960C3E9024590B18DB1D9
:1010D0006A1E052A04F1010202D9811A02293ED8AA
:1010E000411E601900E0013212F8014C01F8014F75
:1010F0009042F8D14FF0E022D2F8041D596592F8E1
:10110000281D996592F8290DB2F82A1DD2F82C4DA8
:1011100089B2C3E91701D2F8301DD2F8340DC3E902
:101120001941D2F8381DD2F83C2D5A67C3E91B018A
:1011300005B0BDE8F08F1E4A92695A60D2E90A54A0
:10114000C2E71C4954694969D5695960BCE7516ACD
:10115000D569E4B251F8241054695960B4E725F018
:10116000030C224601464FEA950E0CEB040752F899
:10117000046B41F8046BBA42F9D16545A5EB0C014B
:1011800000EB0C06B6D014F82E4000F82E400129D2
:10119000B0D0507870700229ACD09278B270A9E7C4
:1011A0000022C3E90222A5E7181B0020601B0020D3
:1011B000341A0020701A002000B5094B9A680121EA
:1011C0009FB019714AB1FFF743FF064B4FF0E02182
:1011D0000322D1F8041D1A75FEE7C3F808D0F2E720
:1011E000181B0020601B002008B5024B01221A7159
:1011F000FFF7E2FF181B00202DE9F0412027EFF355
:10120000118387F311881549154B0D7A154E01226C
:101210000A724FF0E0211C7A1A72D1F8043D124A8A
:1012200096F81480526A0021DBB2317552F82330EF
:10123000EDB2E4B2986040F2000CEFF311828CF34F
:101240001188D3E900029047EFF3118387F31188E7
:1012500086F8148004EB0520BDE8F081341A0020E4
:10126000701A0020601B0020181B0020C0B208B9B3
:10127000FFF784B9704700BF890800B50139864679
:1012800001984EF821000EEB810C890074394CF85E
:10129000043C4CF8082C0EEB0100029A124B4CF85F
:1012A000143C4CF8102C4FF0FF33039A4CF80C2CE4
:1012B0004EF8013043604CE91B334CE919334CE9DB
:1012C00017334CE915334CE91333C0E90C33C0E94B
:1012D0000E33C0E91033C0E91233C0E91433C0E95A
:1012E00016335DF804FB00BF55D0000000F120016B
:1012F0000022012330B4C383C0E90523416200F119
:101300000C04016202772021EFF3118C81F3118824
:101310000C4BC3605D6805615D682C605C608CF39C
:1013200011888260EFF3118281F31188064B03600C
:101330005968416059680860586082F3118830BC70
:10134000704700BF981A0020101B0020836A30B538
:101350005C1E144218BF1A460C4004D00B441B1BE1
:10136000994222D81946036A00F1200543B302F1DD
:10137000FF3C03E018681D46B0B1034613EA0C04B5
:1013800018BF141B586814BF01EB040E8E4670453D
:10139000F0D3401A021B18194CB15C6022B14418FA
:1013A0001D68455062601C6030BD002030BD1B6868
:1013B00022B1435001444A60296030BD2B6030BDEA
:1013C000184630BD2DE9F0412B4D826895F85E300E
:1013D0000262044613B195F85C30EBB1274E20232E
:1013E000EFF3118783F311884FF08053D3F88C31DA
:1013F0001B6B9847D6E91023FEF722FE87F311886E
:10140000A36895F85C1003440122E360227509B1DA
:1014100085F85D20BDE8F0814FF08053174ED3F87A
:101420008C311B6B9847D6E9107843463A46FEF755
:1014300007FEAB6807FB01F108FB0011A0EB030EF0
:10144000D5F85480AB68A8EB030CA7FB003211441D
:10145000E645C6E91231C2D8A768A8EB00083E18D5
:1014600001234745E6602375D4D23846FFF70CFBCD
:101470002F656E65CEE700BFA01A0020202900204E
:101480002DE9F8430BF092FA0AF066FF08F088FDA8
:1014900000F00C030C2B66D010F00407044641D179
:1014A0004FF02008EFF3118988F311884FF0805333
:1014B000334ED3F88C311B6B9847324BD3E9102352
:1014C000FEF7BEFD756DB36D2D1A9D4224D889F3CC
:1014D00011880121084608F069FD05EB8503B0EB92
:1014E000430F1FD2284C183D6561EFF3118588F337
:1014F000118804F10C00FFF765FF85F31188AFF345
:101500000080012008F02AFFAFF3008084F82070EB
:10151000BDE8F8430BF04EBA89F311880121084663
:1015200008F044FDAFF30080230706D530BFAFF3CA
:101530000080BDE8F8430BF03DBA144E4FF08055E3
:10154000D5F8D83130469B6898470428F8D014F075
:10155000100400D180B901200AF0D8FE0C4B012202
:10156000DA62DB6AE3E7AFF3008030BFAFF30080FD
:10157000BDE8F8430BF01EBA20460AF0C7FEEDE7BF
:10158000A01A002020290020AC1B002000400340AE
:101590000020094010B52023EFF3118483F3118854
:1015A000FFF710FF84F3118810BD00BFF8B50446A3
:1015B0001BB3D3E901761D78826000230761816146
:1015C000C66103752022EFF3118182F31188154B58
:1015D00003605E6846605E683060586081F3118821
:1015E0000DB92046F8BDEFF3118582F31188FFF79E
:1015F000E9FE85F311882046F8BDC0E906130361B2
:10160000037582602023EFF3118283F31188054B69
:1016100003605968416059680860586082F3118816
:101620002046F8BDA01A00202DE9F8432A4B1B687C
:1016300006461C6818460F46284B154622B308225A
:101640002421D5F8089095F800806D68A0470446DD
:10165000B8B10023876005618661C0F81C900375EE
:101660002022EFF3118182F311881D4B03605D6826
:1016700045605D682860586081F31188B8F1000FFB
:101680001ED12046BDE8F88308222421A047044645
:101690000028F6D087600561C0E90665057520233E
:1016A000EFF3118283F311880D4B03605968416099
:1016B00059680860586082F311882046BDE8F883B5
:1016C000EFF3118582F31188FFF77CFE85F3118813
:1016D0002046BDE8F88300BF482500204C250020A7
:1016E000A01A00202DE9F0411B4B1F6884B015465D
:1016F00080460C4613463E6808221C213846B047F7
:10170000F0B104B124780474002200F114031FFA2C
:1017100088F6826001224682C26083614361202391
:10172000EFF3118283F311880C4B03605968416019
:1017300059680860586082F3118804B0BDE8F081F0
:10174000074B9D42F9D02DB1064AC5E900271C235D
:10175000AB60FEE701ADF7E748250020981A0020AE
:101760004C25002038E1000030B40346D2E9015096
:1017700014689D61D861D0685961411C5B601C612F
:101780001B601FD001218140C50014690F4A5962B6
:10179000D1691862294400205963C3E90B4483F8D6
:1017A000280003F108012025EFF3118485F3118847
:1017B0009A605568DD6053681960516084F3118840
:1017C00030BC7047282520210520DEE7701A002054
:1017D00070B50446002A30D00B469168052935D9EA
:1017E000013131D1D2E900654FF0280CD268606038
:1017F000052120602020C4E90536194B6062C4E948
:101800000751D969614461630021C4E90B2220209A
:1018100004F10802216184F82810EFF3118180F3AC
:101820001188A3605868E060586802605A6081F3CC
:101830001188636943B1204670BD0A4B0A4AFFF71D
:1018400093FF6369002BF6D1002070BD012016685C
:101850005568D2686460884024604FEAC10CCAE7CA
:10186000701A00204C25002088E2000070B51E4C44
:1018700082B0002520262574E368ABB940F2000C45
:10188000EFF311838CF311880195019B2BB9019B18
:1018900001330193019B002BF9D0EFF3118386F301
:1018A0001188E368002BE9D0E368B3FA83F3C3F14E
:1018B0001F03D4E9070101EBC302904204D3237C48
:1018C000002BD8D102B070BD51F83330A06903F1BC
:1018D0001C011C30C4E906320BF0A8FB237C002B52
:1018E000C9D102B070BD00BF341A002010B5074C3A
:1018F000237C43B90023237240F2000CEFF31183E1
:101900008CF3118810BDFFF7B1FFF3E7341A002004
:1019100010B52023EFF3118283F31188084C237C48
:1019200013B1084B1B7A43B10023237240F2000C21
:10193000EFF311838CF3118810BDFFF797FFF3E7E6
:10194000341A0020701A0020204A117A70B4012441
:1019500000F11405C9B214722023EFF3118C83F344
:10196000118843699D4226D043691E684661D86844
:1019700075601C7408B1002404759B68D068DC6C29
:101980009D69284365681C605D602B606360D06062
:10199000012083F8200010748CF311882023EFF3CA
:1019A000118283F311888CF3118809B170BC7047E0
:1019B00070BCFFF7ADBF037CDB0701D54482F2E7C3
:1019C000438A01339BB24382EDE700BF341A002003
:1019D000FFF7BABFF8B5214B1D7A9C6901221A7234
:1019E000EDB22022EFF3118682F31188DF6861687F
:1019F0002068E26CD4F818C008602168606848600C
:101A000011688A429A6904BF27EA0C07DF60944292
:101A100004BF0022DA6101221A74032284F8202014
:101A200094F8482052B12022EFF3118782F31188F5
:101A300058690138586150B187F3118886F31188CD
:101A4000646024604DB9BDE8F840FFF761BF87F3DB
:101A50001188034B1B6A9847EEE7F8BD341A002043
:101A6000601B0020F0B52C498FB0002301AC05AA03
:101A700009938DF82830CDE90B14079004922023A8
:101A8000EFF3118783F31188244A01219369157AB2
:101A90001172D2F80CC058681E68D96CD3F818E0DF
:101AA0000393066018685E6846600868814204BF58
:101AB0002CEA0E01D1600120194910744E68049877
:101AC0004FF0000CC2F81CC0022283F820200160F5
:101AD000466030604860FFF775FC039B0294EDB2EE
:101AE0005C62019487F311880DB9FFF711FF202381
:101AF000EFF3118183F31188049B58681C6804601C
:101B000018685B6843600022049281F31188039B8C
:101B10005A620FB0F0BD00BFD5030000341A002098
:101B2000A01A0020F8B5244B2020DB6CEFF3118EB7
:101B300080F3118893F828204ABB204C596BE26847
:101B40005E6A257A4FF0010C84F808C032434E6873
:101B500083F828C01960EDB25E6033604B60E260CC
:101B60008EF3118805B1F8BDA169EFF3118680F3FA
:101B70001188E368B3FA83F2C2F11F02E36903EB51
:101B8000C203994206D3257286F31188F8BD8EF3FD
:101B90001188F8BD0A4B0B481F7A83F808C0FFB2C2
:101BA0000BF006FB257286F31188002FDBD1BDE810
:101BB000F840FFF7ADBE00BFA01A0020701A002049
:101BC000341A002051040000F8B52022EFF31184EC
:101BD00082F31188036B0B43036384F31188EFF3E3
:101BE000118E82F3118890F828304BBB1E4C416B4C
:101BF000E368466A257A4FF0010C84F808C0334345
:101C00004E6880F828C00160EDB2466030604860E0
:101C1000E3608EF3118805B1F8BDA169EFF3118679
:101C200082F31188E368B3FA83F2C2F11F02E36919
:101C300003EBC203994206D3257286F31188F8BDDF
:101C40008EF31188F8BD094B09481F7A83F808C044
:101C5000FFB20BF0ADFA257286F31188002FDBD1AD
:101C6000BDE8F840FFF754BE701A0020341A002077
:101C70005104000000B170472DE9F0412022EFF33C
:101C8000118182F311881D4DEB686BB92B7281F3C2
:101C900011881B4E337A012232721BB9BDE8F04124
:101CA000FFF736BEBDE8F081044681F31188A969CB
:101CB000EFF3118782F31188EB68B3FA83F2C2F174
:101CC0001F02EB6903EBC203994204D3287287F326
:101CD00011880B4EDEE70A4E0A4896F80880012369
:101CE00033725FFA88F80BF063FA2C7287F311886D
:101CF000B8F1000FCED1FFF70BFECBE7701A002032
:101D0000341A002051040000244B2DE9F0411C68D6
:101D10008CB92022EFF3118182F31188204DEB68FA
:101D200093B92B7281F311881E4E337A01223272DD
:101D30000BB9FFF7EDFD1C4B1B681BB9BDE8F0416B
:101D4000FFF7E6BDBDE8F08181F31188A969EFF3E3
:101D5000118782F31188EB68B3FA83F2C2F11F0294
:101D6000EB6903EBC203994204D32C7287F3118809
:101D70000C4EDAE70B4E0D4896F8088001233372BB
:101D80005FFA88F80BF014FA2C7287F31188B8F117
:101D9000000FCAD1FFF7BCFDC7E700BF84290020B0
:101DA000701A0020341A00208829002051040000F5
:101DB000000A09D110B5064C237C13B1054B1B7AE0
:101DC0001BB10023237210BD7047FFF74FFDF8E7EA
:101DD000341A0020701A002070B5202198B0EFF35B
:101DE000118381F31188204CE268AAB940F2000CFB
:101DF000EFF311838CF311880192019B2BB9019BA6
:101E000001330193019B002BF9D0EFF3118381F390
:101E10001188E368002BE9D0E268B2FA82F2C2F1DD
:101E20001F02236A114953F83200A06103EBC20379
:101E3000E361002602230B75267440F2000CEFF3D9
:101E400011838CF311882023EFF3118283F311881F
:101E5000074D28690BF0BCF9A1692E6009A81C3157
:101E60000BF0E4F818B070BD341A0020601B00209D
:101E7000181B0020F8B52E4B1B78002B55D02023C3
:101E8000EFF3118183F311882A4A5368072B1DDD74
:101E900081F3118840F2000CEFF311838CF3118869
:101EA0002022EFF3118182F31188234CE368A3B958
:101EB000237281F31188214D2B7A01222A720BB9EA
:101EC000FFF726FDBDE8F840FFF786BF10681C4C01
:101ED00040F8234001335360DAE781F31188A169A8
:101EE000EFF3118682F31188E368B3FA83F2C2F14B
:101EF0001F02E36903EBC203994205D30023237257
:101F000086F311880D4DD7E70C4D0E482F7A01232B
:101F10002B720BF04DF90023FFB2237286F3118868
:101F2000002FC9D1FFF7F4FCC6E7FEF7A1FD00BF03
:101F300024250020281A0020701A0020341A0020BE
:101F4000250300005104000000B97047FFF78ABD67
:101F5000F0B50446D0E90A2085B022B1BE210BF0CD
:101F6000F3FCD4E90A20D4E90E31CDE901312D4941
:101F700000912D4B111F626BFFF77EF9E061002885
:101F80004DD0616900220123914284F820306262C1
:101F900032DB264A6069116A656901EBC501E164BB
:101FA000117A137203FA00F0A061C9B22020EFF396
:101FB000118E80F31188EFF3118C80F31188D568AE
:101FC000E66CA7693D437768266067603C60746093
:101FD000D56084F8203013748CF31188EFF31183EB
:101FE00080F311888CF311888EF3118809B9FFF7FB
:101FF0008FFC002005B0F0BD0D49A261E1642023F3
:10200000EFF3118283F311882160A1F12C03496859
:102010006160196B0C601C6382F31188E9E7012091
:1020200005B0F0BDED180000D5190000341A0020ED
:10203000601A00202DE9F04715461F46D5F8188094
:102040001268EB68026184B004468A464361B8F1C5
:10205000000F45D06B692A69C4F83080002B08BF97
:102060004FF40073002A3FD0D11D21F00701521A0E
:102070001A4422F007024FF0FF33E162A2622363A9
:102080006A68A96895F82030C4F834A0C4E90E2124
:10209000EA69226484F84830CBB900236365394685
:1020A0002046FFF755FFB8B904F108022023EFF3EB
:1020B000118183F311881F4BA3605D68E5605C6844
:1020C00022605A6081F3118804B0BDE8F087194A94
:1020D000536901335361E0E7023004B0BDE8F08793
:1020E000154BD3F80080B5E7073323F00709C4F890
:1020F0002890B8F1000F09D0D8F800603B460822BC
:1021000049464046B04728B1E062B9E70B4BD3F8E7
:102110000080F1E70A4B9F4206D047B1094BC7F850
:102120000890C7E90038FEE7E0620120CCE701AF84
:10213000F4E700BF341A002058250020482500206D
:102140004C25002038E100002DE9F041044639BB60
:10215000394B1D7A01212022EDB21972EFF311865D
:1021600082F3118890F820208A421DD0022A4AD09A
:10217000032A2DD1436802681A60036842685A60D6
:1021800086F311880DB9FFF7C3FB206B431C09D000
:10219000D4E90A21002830D0BDE8F041436818474F
:1021A0000129F2D1BDE8F08142680168116001683F
:1021B000C26C4068486011688A4237D0626A3AB19E
:1021C000D2682AB1516810680860116852684A6084
:1021D00094F84820002AD3D02022EFF3118782F30D
:1021E000118858690138586120B987F31188134B59
:1021F0001B6A984787F31188C2E7114B1868BDE83E
:10220000F04143681847426A002AE1D051681068DB
:1022100008601068D168526842600029D8D04A68C6
:10222000086810600A6849685160D1E7DA68A169F6
:1022300022EA0102DA60C1E7341A0020601B0020A4
:10224000482500202DE9F0416C4D8AB0FEF7E2FCF4
:102250006B69019301ACA34204D2BE2203F8012BA7
:102260009C42FBD1664B93F82820002A68D0654A2F
:10227000654B664911601A7A0AB901221A72644BD9
:1022800093F865300BB9FEF721FE624A92F82430CC
:10229000CBB9D369012182F8241003F1080103F1BD
:1022A00010025B601B60D96099605A6103F11801EC
:1022B0001A6103F12002D96199615A621A6203F12D
:1022C0002802DA629A62544E96F83830CBB9336AF3
:1022D000012286F8382003F108025B601B60DA6097
:1022E0009A6003F110025A611A6103F11802DA616F
:1022F0009A6103F120025A621A6203F12802DA623B
:102300009A62464B1F78002F4FD095F838308BB922
:10231000012385F838302023EFF3118283F31188ED
:10232000EB696A69083B22F0070213444FF0FF3261
:102330002B612A603A4B01221A700AB0BDE8F08185
:1023400001223849384883F82820384F384EFEF7A4
:10235000CDFF384B08229A6217F00702A6EB07065A
:102360003FD1DF6126F007065E622022EFF3118085
:1023700082F31188304A1A615168596156682F49B1
:102380003160516080F31188DA6900211160596A67
:1023900051602B4919602B491A6259602A4A2B490E
:1023A00099602B49D960136061E74FF00108202242
:1023B000394602A883F800800BF0C6FA254905913A
:1023C00022462549254C01914FF4007106913B4668
:1023D00023498DF824802046FFF72CFE40B9746312
:1023E00093E71644C2F108023A44DA61083EB9E7BD
:1023F00001462046FFF7A8FEF1E700BF181B0020AA
:10240000601B002018290020281A00202029002005
:10241000A01A0020701A0020341A0020BC250020C9
:10242000242500209CE2000018280020A85D002040
:10243000A89D00208C290020081B00209C2900203A
:10244000E127000009270000482500205D03000067
:102450005D280000C025002084E00000C027002087
:1024600061030000234A2449137A70B50C680120E7
:10247000DBB21072002C37D022680A600BB9FFF76C
:1024800047FA04F12403A36220226362EFF311836D
:1024900082F3118861692069086021696069486078
:1024A00083F31188E068E8B1EFF3118382F31188B8
:1024B000C268816811608268C168516083F31188C5
:1024C0000E4D0021FFF740FE2868E168436858225E
:1024D00098470023E360286821464368BDE87040C0
:1024E00050221847054DF6E71BB9BDE87040FFF7CD
:1024F0000FBA70BD341A0020802900204825002022
:102500000D4BC26C70B4DD684168046886690C606C
:10251000016844684C6011688A429A6904BFB543F7
:10252000DD60824204BF0022DA610221012270BC18
:1025300080F820101A747047341A00202DE9F041F9
:102540004B1E03338EB004464DD83D4A07910023FD
:102550006E460B9205A9022209938DF828300C963D
:1025600003918DF810202023EFF3118583F3118858
:10257000438A9BB2002B4BD100F11408314B986970
:102580001F7A466201221A720290FFF7B9FFA3690F
:10259000CDF8008001931E609DF81030A661022BDB
:1025A000FFB23FD085F311880FB9FFF7B1F92023AF
:1025B000EFF3118283F31188039B3BB159681868CC
:1025C000086018685B68436000210391029B00214A
:1025D000596282F311889DF81000401A18BF01203B
:1025E0000EB0BDE8F081002203238DF81030039275
:1025F0002023EFF3118283F31188438A9BB215469F
:1026000033B9C9B982F3118808460EB0BDE8F0812C
:10261000638A013B9BB2638285F3118801200EB06F
:10262000BDE8F081084B03985A680360426010606F
:102630005860FEF7C7FEB5E700F114086E469DE747
:1026400075030000341A0020A01A002008B5FFF717
:1026500075FF013840B208BDF0B587B000220323F2
:102660008DF81430044604922023EFF3118583F390
:102670001188438A9BB2002B30D1214B98691E7A76
:10268000039001AF012247621A72FFF739FFA36975
:1026900004F11402019202931F609DF81430A761A7
:1026A000022BF6B222D085F311880EB9FFF730F96C
:1026B0002023EFF3118283F31188049B3BB1596807
:1026C0001868086018685B68436000210491039BE8
:1026D0000021596282F3118807B0F0BD438A013BA3
:1026E0009BB2438285F3118807B0F0BD054B049877
:1026F0005A680360426010605860FEF763FED2E7DC
:10270000341A0020A01A00202DE9F041314FDFF8E3
:10271000CC801546D8F81830BA689A4206460C465E
:102720003DD14FF0010CB26A531E2B401CBF521911
:10273000D51A336A06F12002002B3AD09C4202D807
:102740003BE09C4211D919461B68002BF9D1C4E922
:1027500000350C608A4203D04B68CA18944210D0EE
:10276000BCF1000F14D0BDE8F08160198342C4E9C8
:1027700000350C60EED158681B680544C4E900358B
:10278000E8E722682B44C1E90023BCF1000FEAD13D
:10279000C7F808C01048BDE8F041FFF7D5B807F109
:1027A0000C00FFF759FFD8F81830BB604FF0000C51
:1027B000B9E7C4E900353462D2E762199342C4E94B
:1027C00000353462CCD15A681B682A44C4E900320F
:1027D000C6E700BF1828002024280020341A002053
:1027E0002DE9F043DFF870801D46184BD8F80840FB
:1027F0009B699C4285B007460E4607D1FEF7A6FDB1
:102800000446BCB1204605B0BDE8F083914608F10E
:102810000C00FFF721FF4A4631463846FEF796FD89
:102820000023044608F10C00C8F80830FFF78CF8C4
:10283000002CE7D1064B9D42E4D025B1054BAE609C
:10284000C5E90037FEE701ADF8E700BF341A002004
:102850004C250020CCE10000182800202DE9F04193
:102860001C4FDFF87880436ABA680B60D8F81830DC
:1028700000249A42C1E9014406460D4616D1036A76
:1028800093B1204601215A681B68A242104407D91F
:10289000AA603BB114465A681B68A2421044F7D89C
:1028A000002BF0D1686071B1BDE8F08107F10C0038
:1028B000FFF7D2FE336AD8F81820BA601BB1214660
:1028C0006868AC68DFE70023BB600348BDE8F041FF
:1028D000FFF73AB81828002024280020341A0020D6
:1028E00010B52422044600210BF02EF801234FF4EA
:1028F0000072E360626184F8203010BD2DE9F0477A
:10290000044684B08A461F461546002A53D01368F1
:102910000361D3684361D2E905381269B8F1000F49
:1029200079D0002BC4F8308008BF4FF40073002A20
:102930004CD0D11D21F00701521A1A4422F007028F
:102940004FF0FF33E162A26223636A68A96895F8D9
:102950002030C4F834A0C4E90E21EA69226484F866
:102960004830D3B90023636539462046FFF7F0FAB3
:10297000C0B904F108022023EFF3118183F3118819
:10298000274BA3605868E060586802605A6081F382
:102990001188204604B0BDE8F087214A536901330D
:1029A0005361DFE7811CF4D02046FFF7CDFB002008
:1029B00004B0BDE8F0871B4B0561D3F800801A4DC9
:1029C000C0F83080012242614FF40073073323F0D6
:1029D0000709C4F82890B8F1000F09D0D8F80060B2
:1029E0003B46082249464046B04728B1E062ACE782
:1029F0000E4BD3F80080F1E70D4B9F4206D047B154
:102A00000C4BC7F80890C7E90038FEE7E0620121E7
:102A1000CAE701AFF4E70349D1F8008081E700BFBE
:102A2000341A00205825002064E2000048250020C8
:102A30004C25002038E1000089B138B511F10804B7
:102A40000BD2084A084B1068214605680822A8479F
:102A500018B1C0E90004083038BD002038BD00209E
:102A6000704700BF482500204C2500200B4659B177
:102A70008C46064A5CF8081D106853F8042C43681D
:102A8000ACEB010C62441847704700BF482500209A
:102A90002DE9F0411546002937D00C4632B312F12A
:102AA00008062ED21B4F1C4B38680822D0F8008035
:102AB0003146C04728B3466054F8042C0060083AF9
:102AC000AA4200F1080628BF2A46214630460AF0ED
:102AD00083FD2346386853F8081D54F8042C5B1A0C
:102AE0001A44436898473046BDE8F0810B46094ACE
:102AF00053F8081D106854F8042C5B1A1A444368F4
:102B0000984700263046BDE8F081BDE8F041104608
:102B1000FDF782BC482500204C2500202023EFF340
:102B2000118283F31188FEE708B52023EFF31182A9
:102B300083F31188074E7468002C08DD0546013CBC
:102B40003368284653F824309847013CF8D2FDF703
:102B50007DFC00BF281A002008B5024B03221A751D
:102B6000FFF7E2FF601B002010B50A4C0A4A2368F9
:102B7000D0F800E003EB430C42F81CE002EB4C02FF
:102B80008088908005485A1CC15402F00F022260D0
:102B900010BD00BFB8290020CC290020BC2900208E
:102BA000F8B50E4B0E4F1E68741E054604F00F0458
:102BB00004E0013C04F00F04A6420CD004EB4401F5
:102BC000062207EB410128460AF094FE0028F0D1C6
:102BD000044B185DF8BDFF20F8BD00BFB8290020E8
:102BE000CC290020BC29002040684B68C01A7047DF
:102BF0002DE9F04F1546684A89B016680293804661
:102C00000F46002E00F0C480082E54D06349039173
:102C10004FF0000C0C4605EB030A08E09D420CF156
:102C2000010056D3864204F10C046BD084468DF823
:102C300014808DF815702388BDF814209A42204620
:102C40006368EBD1A2680093E91A03EB0209CDF89F
:102C500004A02BD4A3EB050EBEF1000F1BDB9D429D
:102C60002A4628BF1A46A91AAAEB020BA3EB020EAA
:102C70007145A9EB020210D2F345CFD3934574D22C
:102C8000A9EB0502C0E90152454B444831460C22EC
:102C90000AF0E9FC34E0AAEB030B9142BED2934563
:102CA0002ED3DDE900239B1A836029E0DDF808B00C
:102CB0002A460021DAE78DF8151038498DF81400FE
:102CC000BDF814200B889A422BD0002009B0BDE833
:102CD000F08F0399A6EB0C0C0CEB4C0C00EB4000B6
:102CE00001EB80004FEA8C0221460AF013FE029BA2
:102CF000A360294B84F800800136677065601E6010
:102D00000120E3E7039906EB460301EB830101365B
:102D1000214B81F800801E60029B4F704D608B60DC
:102D2000EEE74868029B8A680090EC182B1A019421
:102D300000EB020926D4411B002910DBA842024601
:102D400028BF2A46AB1AA4EB020B0146891A8B4214
:102D5000A9EB020205D25945B7D810488EE7A4EB7B
:102D6000000B9342B1D20D4899E7029A80F8008097
:102D70004770456082600A4B084831460C220AF0D1
:102D800072FCBDE7DDF808B02A4600230146DDE706
:102D900002490126BCE700BF2C2A0020302A00206F
:102DA000E92B00002DE9F84FDFF898B1DBF800506F
:102DB0008246894690467DB30024614E234603EB4C
:102DC000430106EB8100D0E901273A4492454FEADE
:102DD000810110D80134A5422346F0D87068A0EBD9
:102DE0000A03002B1CDDFF2389F80030002388F83C
:102DF0000030BDE8F88FEB1A03EB43039A000C3167
:102E0000013D0C3A31440AF085FDAC42CBF800504C
:102E10002346D4D3002DE1D10AF100400138E2E786
:102E2000012D4ED03369A3EB0A02002A4DDC022D9E
:102E300050D0F069A0EB0A02002A4FDC032D52D0DB
:102E4000B36AA3EB0A02002A55DC042D4FD0706B45
:102E5000A0EB0A02002A60DC052D5AD0336CA3EBEC
:102E60000A02002A50DC062D4AD0F06CA0EB0A02C0
:102E7000002A60DC072D5AD0B36DA3EB0A0ABAF121
:102E8000000F4FDCF06D082D184418D008220723DE
:102E900002EB420206EB82025268111A30EA21006C
:102EA00028BF104603EB430306EB830216F82330DA
:102EB00089F80030537888F80030BDE8F88F072390
:102EC000F0E7B36818440023ECE7B3680122184424
:102ED0000023DDE7706918440123E3E770690222EB
:102EE00018440123D4E7336A18440223DAE7F06A6E
:102EF00018440323D6E7336A032218440223C7E7A2
:102F0000706C18440523CDE7B36B052218440423E5
:102F1000BEE7B36B18440423C4E7F06A04221844E4
:102F20000323B5E7336D072218440623B0E7336D5A
:102F300018440623B6E7706C062218440523A7E759
:102F4000302A00202C2A0020034B04480021602254
:102F500019600AF0F9BC00BF2C2A0020302A00209A
:102F6000002A5DD02DE9F0412E4D871C4FF0000E58
:102F700029E0CE5C62450EF1030E4FEA062644D9E5
:102F800011F80C30334343EA0443C4F38D04C3F314
:102F9000053615F80480AE5DC3F385144FF0000CC0
:102FA00003F03F032C5DEB5C68F3070C66F30F2C1A
:102FB00064F3174C63F31F6C964547F802CC07F196
:102FC00004030DD21F460EF101039A4211F80E4080
:102FD0000EF1020C4FF00006CBD89E463346D1E7E7
:102FE0001149A1FB023121F0010303EB5103D31A74
:102FF000012B07F101040BD0022B01D13D232370DB
:10300000C0F10202D019BDE8F081E6460023B9E71D
:103010003D23C0F102027B703B70D019BDE8F08106
:1030200010467047C8E20000ABAAAAAA2DE9F047F3
:10303000504F1E463B78054688461446BBB94FF4B0
:103040008072FF214C480AF07FFC4C4A4A4802F14A
:10305000400196460EF1010EF44671451CF8013907
:10306000ACEB020C00F803C0F4D101233B70A307C2
:1030700071D1002C69D008EB0403A70813F8012CC8
:103080003D2A07EB470706D113F8023C3D2B14BF3E
:1030900007F1FF37023F0022DFF8DCE0414610462F
:1030A0000FE002F1020C4FEA1829BC4505F8039025
:1030B0005ED205F80C8003320430844201F1040131
:1030C00042D90B7891F802803D2B18BF1EF803A05F
:1030D0004B7808BF4FF0000A3D2B15BF1EF803C008
:1030E00053464AEA0C034FF0000CB8F13D0F18BFED
:1030F0001EF8089091F8038014BF43EA09034FF0CB
:103100000009B8F13D0F1ABF1EF8088043EA080312
:103110004FF0000813F0C00F24D19742CCD94FEAEA
:103120000C3C4CEA8A4C4CEA891C531C4CEA0808BB
:10313000BB424FEA1C4C05F802C0B2D304308442B3
:103140001A4601F10401BCD83C460EB1002333609D
:103150002046BDE8F08716B14FF0FF333360002002
:10316000BDE8F087002EFAD06FF001033360F6E778
:103170006246A1E7902B0020902A0020C7E20000C1
:10318000F0B5924C85B0A51C00260027204600F023
:10319000ABFB0128FADD6378103B152BF6D8DFE88E
:1031A00013F0B900AF00A7009E00D400CA00DA00F7
:1031B0006F00EE008F0083007800FD00E400F40053
:1031C00066005300460061003B00360016000728E9
:1031D000DCDDA1780229D9D8E378032BD6D8012BDE
:1031E000D4D094F804C0BCF1030FCFD8E279F52A0B
:1031F000CCD802F1080E8645C8D10846B4F80510AF
:103200000191CDF800C0724902F0CCFBBEE7022864
:10321000BCD104F01BF9B9E70328B7D1A178032981
:1032200086BF00210120002002F0C2FCAEE7023878
:103230001028ABD88110674802F068FC011EA5DA9F
:10324000654800F03BFAA1E70728CDE902679DD168
:1032500028682B7902908DF80C30DDE9020102F02C
:1032600011FC93E7022891D102F0E0FB8EE70328DE
:103270008CD1A078003818BF012002F0FDFB85E753
:10328000022883D109F092FB544B0122C3F87C251C
:10329000FEE709287FF47AAFA0785149003818BFBB
:1032A000012002F0EDFA71E71F287FF46FAFA078DC
:1032B0004C4A003818BF0120911F02F0F3FA65E76D
:1032C00005287FF763AF63799A1D82427FF45EAF72
:1032D000454A21791846638803F0ACFF56E7082871
:1032E00013BF00213B490120084600F00FFE4DE7C7
:1032F00003287FF44BAF94F9020000F001FE45E78C
:1033000003287FF443AFA078003818BF012002F0F3
:1033100093FA3BE70C287FF439AFA07827283FF6D3
:1033200035AFE279032A3FF631AFA368D4F8031032
:1033300002F00AFA2AE703287FF428AFA0780038C1
:1033400018BF012002F03AFA20E702287FF41EAFEE
:1033500002F03AFA1AE703287FF418AFA078003891
:1033600018BF012002F06EFA10E704287FF40EAFB8
:10337000608813287FF60AAF02F078FB06E7811E0B
:1033800089B2284602F066FA00E7122813BF00212E
:1033900010490120084600F0CDFDF7E643287FF4F0
:1033A000F5AEA07803283FF6F1AEE2781F2A3FF68B
:1033B000EDAE94F823301F2B3FF6E8AE00930B4B95
:1033C000A3F1200102F0B0FAE0E600BF942B002048
:1033D0009C2B0020962B0020A4E00000000020433E
:1033E000972B00209D2B00209A2B0020B82B00202B
:1033F00070B5094C094D2046FFF772FA4FF4806012
:1034000003226061E2602561224605490548BDE866
:1034100070400023FFF772BA18310020C02C002042
:1034200081310000C03000200649074ABFF35B8F9E
:1034300000230B60BFF35B8FBFF35B8F1360BFF3A1
:103440005B8F7047403100203C31002010B5184A96
:10345000184CBFF35B8F1368BFF35B8FBFF35B8FB9
:103460002468BFF35B8F1B1B062B00D910BDBFF375
:103470005B8F52E8003F5C1C42E8004CBCF1000F3F
:10348000F7D1BFF35B8F03F007020B4B8C4602EBC7
:10349000420103EBC10E094B23F81200BCE80F00F8
:1034A000AEE80F009CE803008EE8030010BD00BFEB
:1034B000403100203C3100205831002044310020B0
:1034C00010B51D4B1D4CBFF35B8F1A68BFF35B8FAC
:1034D000BFF35B8F2368BFF35B8F9A4201D100205B
:1034E00010BDBFF35B8F2368154ABFF35B8F03F0FA
:1034F000070332F81320824202D0121A1204EED5CA
:10350000104A03EB430302EBC30E8C46BEE80F00E8
:10351000ACE80F009EE803008CE80300BFF35B8F6C
:1035200054E8003F013344E80032002AF8D1BFF3E9
:103530005B8F012010BD00BF403100203C310020D6
:1035400044310020583100200E4B0F4ABFF35B8FEF
:103550001968BFF35B8FBFF35B8F1268BFF35B8F9C
:1035600091420DD0BFF35B8F1B680848BFF35B8FA0
:10357000013B03F0070303EB430300EBC300704779
:1035800000207047403100203C310020583100209D
:103590002DE9F043DFF86890164E002114461FFA1B
:1035A00080F8070C89F800100D460A46C1F1200E7C
:1035B000A1F1200C24FA01F003FA0EFE40EA0E00FD
:1035C00023FA0CFC40EA0C00C00703D5501CB15490
:1035D0000125C2B201312529E8D10DB189F80020B9
:1035E0000548064988EA0702C1E900430280BDE8B0
:1035F000F08300BF1C320020183200204832002027
:1036000041320020274B28491B885840C0F307222D
:10361000C0B210B48C5C0A5C42EA042202EB0212D3
:103620001A44C2F30720D2B2085C8A5C42EA002244
:1036300002EB02121A44C2F30720D2B20C5C8A5C7D
:103640001A481B4942EA042202EB02121A44534070
:103650009BB2A0FB03201A1A00EB5200400900EBBA
:10366000C00200EB8200181AD1E9002480B2C0F138
:10367000200104FA01F1C2400A43A0F1200124FA1A
:1036800001F10A43D20709D40A4A0B4912785DF8BE
:10369000044B02FB03F31B14C85C7047C0B25DF817
:1036A000044B70471832002008E300004D91CFBA58
:1036B00048320020413200201C3200200FB410B5E7
:1036C000A6B028AB039953F8042B01930024C1F34F
:1036D0000E01CDE902414FF4205106A8ADF81010BB
:1036E0008021059009F06AFFBDF80C30024662F3B4
:1036F0000E0302A8ADF80C3000F026FB26B0BDE8A2
:10370000104004B0704700BF024B00221A7002F054
:10371000C7BB00BF5432002000B585B001A807F038
:1037200039FA084B02930020642201A90392ADF8F4
:10373000040007F0C5FA044B186010B105B05DF83D
:1037400004FBFEE7093700005832002008B902F0F8
:10375000A7BB38B50A4D024604460021286807F089
:1037600021FA084B01221A7004F074FE064A00EB9D
:10377000840414602868BDE8384007F047BA00BFE9
:103780005832002054320020503200200D4B1B785C
:1037900003B9704770B50C4E0446306807F05AFA0A
:1037A0000A4B1D6804F056FE05EB8402121A002134
:1037B0003068920807F0F6F93068BDE8704007F00D
:1037C00025BA00BF54320020583200205032002069
:1037D000024B00221A7002F0CDBF00BF6032002001
:1037E00010B584B001A807F0D5F96424074B029303
:1037F000002201A901200394ADF8042007F060FA2B
:10380000034B186008B104B010BDFEE7D1370000CB
:10381000643200202DE9F041044678B9194D2B7827
:103820001BB9BDE8F04102F0A5BF174B186807F0BF
:1038300011FA2C70BDE8F04102F09CBF114FDFF887
:103840004C8004F007FE3B7800EB84052BB1D8F8E0
:1038500000305B1BB3F1004F11D80B4E306807F0FE
:10386000F9F930682246002107F09CF901233068FD
:103870003B70C8F80050BDE8F04107F0C7B9BDE89B
:10388000F08100BF60320020643200205C320020F2
:1038900008B5FCF73DFD01F0F7FC00F0FFF9FFF77C
:1038A000A7FDFFF739FFFFF79BFFFDF7E7F80020C3
:1038B00008BD00BF00B58BB001A807F0F9FA4FF4BE
:1038C0006123002001A907938DF8180007F046FE38
:1038D000044AB0FA80F35B09106058420BB05DF8FF
:1038E00004FB00BF903500202DE9F0437F4E804C53
:1038F00087B004AB012231460746206807F012FC6E
:103900000A230093206804AB0522711C07F000FB1A
:10391000049B042B40F293800DF10C0843460422D3
:1039200031463846FFF782FB039B002BC0F2C18073
:103930003D7805EB4503B3F5967F00F39D80012D9F
:1039400014DC16F825300D2B4FEA85025AD11644A7
:1039500073780A2B56D1434664493846FFF766FB15
:10396000039B002B2FDB07B0BDE8F0834FF4D3722D
:1039700005F1FF3900924FEA890904AB20684A46F5
:10398000B11D07F0C5FA049B4B45DAD200238DF830
:103990000B3005AD0DF10B062B4620680122314698
:1039A00007F0C0FB9DF80B300D2BF5D12B4620689E
:1039B0000122314607F0B6FB9DF80B300A2BF3D1FC
:1039C0006FF00300CFE700238DF80B3005AD0DF14C
:1039D0000B062B4620680122314607F0A3FB9DF819
:1039E0000B300D2BF5D12B4620680122314607F014
:1039F00099FB9DF80B300A2BF3D103980A3807B0D6
:103A0000BDE8F08300238DF80B3005AD0DF10B06FA
:103A10002B4620680122314607F084FB9DF80B30CD
:103A20000D2BF5D12B4620680122314607F07AFB99
:103A30009DF80B300A2BF3D16FF0040093E70023BD
:103A40008DF80C3005AD0DF10C082B4620680122D5
:103A5000414607F067FB9DF80C300D2BF5D12B4646
:103A600020680122414607F05DFB9DF80C300A2BCF
:103A7000F3D14FF0FF3076E700238DF80B3005AD22
:103A80000DF10B062B4620680122314607F04AFB58
:103A90009DF80B300D2BF5D12B46206801223146C5
:103AA00007F040FB9DF80B300A2BF3D16FF00200BA
:103AB00059E700238DF80B3005AD0DF10B062B46B1
:103AC00020680122314607F02DFB9DF80B300D2BAD
:103AD000F5D12B4620680122314607F023FB9DF8E3
:103AE0000B300A2BF3D16FF001003CE7FC330020D0
:103AF00090350020F0B50D4E0A4683B001463046A1
:103B0000FFF72EFA40F60D23841C33520BD0084FDA
:103B1000002501AB22467119386807F077FC019B3C
:103B2000E41A1D44F5D103B0F0BD00BF6832002097
:103B3000903500202DE9F84F4E4EDFF858914E4F4A
:103B40004E4DDFF85481DFF848A1D9F800004FF05E
:103B5000FF31FEF7F3FC3868012105F033FFBFF3B6
:103B60005B8F2B68BFF35B8F03F0070308EB031039
:103B70001B018288C2F30E04B4F5827F22461DD851
:103B800090F809E0C1680EF03F0CACF1280CBCF1D4
:103B9000030F49D8DFE80CF02935220214233848F6
:103BA0007370B47009F018FD631DAAFB0323C3F3FF
:103BB0004703E11C30463370FFF79CFF3868002153
:103BC00005F000FFBFF35B8F55E8003F013345E888
:103BD0000032002AF8D1BFF35B8FB6E7132373706E
:103BE0000B78B37003210123E4E711232548737098
:103BF00009F0F2FC231DAAFB0323C3F34703A11C16
:103C0000D8E758F80330204812229B0872702246E9
:103C1000C6F8023009F0E0FC04F10803AAFB032314
:103C2000C3F34703A11DC5E758F803309B08C6F846
:103C300002304379DB0944EAC3320EF0C003CEF30D
:103C4000050E43EA0E03F372C3883381037AF280D0
:103C5000B372224610230D48737009F0BDFC0C4A64
:103C600004F10E03A2FB0323C3F3470304F10C0189
:103C7000A0E700BF94350020683F0020C036002038
:103C800097350020963500209A350020A035002079
:103C9000ABAAAAAA8C3F0020C836002030B5214B21
:103CA000214A03F5027103F58270D16203F5826146
:103CB00083B0D360D061D16403F2145003F5C361C3
:103CC00003F5437403F21C73D065D166D367D463E4
:103CD00005F0FEFC0020694605F0D8FD134B186086
:103CE000D8B1002211461046FDF7FCFC104C114BD8
:103CF000114D1860FFF7DEFD2046FEF7F1FD4FF491
:103D0000806003226061E2600C490D482561002358
:103D10002246FEF7F3FD03B030BD0A48FEF7FEFE73
:103D2000DFE700BF48370020C8360020683F00208A
:103D3000E84300208C3F0020903F0020353B0000EE
:103D400090430020C0E00000F8B5437A03F03F0341
:103D5000272B044653D9A388C3F30E03B3F5827F00
:103D600000D9F8BD5B4A5C49BFF35B8F1368BFF3B2
:103D70005B8FBFF35B8F0968BFF35B8F5B1A03F048
:103D80000703072BEDD0BFF35B8F52E8003F591CB0
:103D900042E800100028F8D1BFF35B8F4F4FA28894
:103DA000E16803F0070307EB0315C2F30E02E868AE
:103DB0001E0109F011FCA288AB88494962F30E0389
:103DC000AB8063796A79DB0963F3C7126A71E388B0
:103DD000EB8094F908302B722368BB516B7A627ABE
:103DE0000868083562F305036B70637A6A789B098B
:103DF00063F387126A70BDE8F840FDF7A5BD01F0D6
:103E00005FFA002834D1374B94F9082093F9003039
:103E10009A42A6DB344B197819B9344B1B78002B26
:103E20002FD0A388C3F30E03012B9AD9E06805783D
:103E3000012205F00F06B24012F0570F3BD112F4E9
:103E4000C07F22D112F0280F8BD00D2B89D900F121
:103E50000803ED09002935D1244A12788AB1002DD2
:103E60003FF47FAF2248194602F08EFC48B9F8BDF6
:103E7000204A63791178204A61F3C713637113688C
:103E8000E380204601F02AFA65E7022B3FF469AF90
:103E9000827802F03F02961C9E42BFF662AF002A73
:103EA000EFD0C378DB07ECD5062A7FF65AAF031DA7
:103EB000C5F38015CEE7072B7FF653AF831CC5F300
:103EC0008015C7E70D490622184609F013FD0028A2
:103ED000D7D0F8BDC4360020C0360020C836002038
:103EE0008C3F00208C1B0020803F00206C3F002076
:103EF000703F00200C440020C8450020843F002073
:103F0000014B1870704700BF8C1B0020034621B185
:103F1000054A08681060898891800448044A037043
:103F200000211170704700BF843F0020803F0020B7
:103F30006C3F002010B4844631B10B4608689A6883
:103F4000064C4968DB680FC40549064B5DF8044B15
:103F500081F800C000221A70704700BF703F002037
:103F60006C3F0020803F002000680B68C01A70473B
:103F700010B586B00B4A039B107003F40043002178
:103F800043F001038DF807004FF428520DF10704A8
:103F900002A8CDE902130594ADF81020FFF7D4FE76
:103FA00006B010BDF2450020284A294B1178D3E90C
:103FB000002319B127490868FFF7EABA30B50C4663
:103FC0008BB0C1F1200EA1F1200C22FA01F003FA0E
:103FD0000EFE40EA0E0023FA0CFC40EA0C00C50776
:103FE00006D504F128006844013400F8281CE4B226
:103FF00001312529E5D1184D0021C1F1200EA1F193
:10400000200C22FA01F003FA0EFE23FA0CFC40EA1F
:104010000E0040EA0C00C0075FFA81FC0FD4BCFB25
:10402000F4F004FB10CC0AA850FA8CFC01311CF807
:10403000280C05F8010F2529DFD10BB030BD013167
:10404000252905F801CFD8D10BB030BDC2450020DD
:10405000D8450020981B0020F34500202DE9F041B1
:104060001546304A304C98462B6813606A7D6B6861
:1040700007462E4802F01F0202702D480E4623F01C
:104080007F4101602B482C49027000220A700020F9
:104090000021C4E90001637D286920602A7D227126
:1040A00043F002036375FFF77FFFB8F1000F36D0CE
:1040B000BB1E42F2107243F69820012B8CBF1146B2
:1040C0000146627D6B89B5F808C0277522F00502AC
:1040D00042F005026275AA896282A6F5FA6641F28B
:1040E000883202FB03F302FB0C661E440E44E8898F
:1040F0001249A36049F6404203EB43030E60104DA2
:10410000104906EB430300FB02F20F4EE26000226F
:1041100033602A60BDE8F0410A60FFF785B941F2DB
:104120008831CEE7981B0020D8450020D4450020D8
:10413000D0450020D5450020C1450020CC450020B9
:10414000C84500207C450020C4450020F0B587B05C
:10415000234A039B234C1278227003F4004343F05C
:1041600001038DF8072000250DF107024FF42856B2
:1041700002A8CDE902530592ADF81060FFF7E4FD07
:10418000194B1A4A1A602378042B02D0184F3B7837
:104190000BB907B0F0BD0DF107030593039B154A5A
:1041A000029503F40043156043F00103124A0393A0
:1041B000124B157002A8012549F640429A60ADF8ED
:1041C000106025708DF80750FFF7BEFD0C4B3D7059
:1041D0001A221A6007B0BDE8F04002F0CBBA00BF67
:1041E000F1450020F2450020981B0020D6BE898EA4
:1041F00061450020C8450020C0450020D84500206A
:10420000941B00202DE9F043A44B1A7887B0044694
:104210000AB100297AD0A24D2978032904D1A14AF4
:10422000137883F001031370A388C3F30E03012BEB
:1042300020D9E3681A7893F8018093F8029002F08D
:104240000307D20608D4974B97481B7801229A405F
:10425000037823EA02030370944E337843B1944BFE
:104260001B782BB1904B1B7813B9032900F0858084
:10427000032F02D007B0BDE8F083A388C3F30E0379
:10428000023B4345F6D1FFF75FF98A4B002814BF84
:1042900007461F463378002B40F02281B9F1180FF2
:1042A000E8D801A353F829F02D440000E5430000AD
:1042B0008743000075420000754200008143000002
:1042C0007542000075420000754200007542000012
:1042D0007542000075420000754200007542000002
:1042E00075420000754200007542000075420000F2
:1042F00075420000754200007542000075420000E2
:104300007542000075420000994300006A4A6948FE
:1043100015688268266819706849521B0B68644DDD
:104320003244674E2D7846F82320013303F003030F
:104330000B6085B1634A407D216813684607A1EB95
:1043400003030CD46048614D03F6C413A0FB0303C0
:104350001B0B2B8001E021685A4A11605BE7C507FF
:10436000FBD44007F9D55A4D286802289CBF594E06
:1043700046F8203001302860EFE702F0FBF977E7DC
:104380000123337076E7B8F1020F7FF473AF07B003
:10439000BDE8F043FFF7DABEB8F1050F7FF46AAF6E
:1043A0003E460FCE6D460FC596E8030085E8030034
:1043B000D4F80CC00024ADF810409CF8033003F092
:1043C0000703022B00F04281042B00F03D81012BFA
:1043D00000D03C7D8DF81440BCF805006946FFF71D
:1043E00035F847E7B8F1080F7FF444AF0FCF6D46BB
:1043F0000FC597E803000022002385E80300CDE9FC
:104400000023E4689DF81530D4F803000090E279A9
:104410008DF80420002643F002038DF81530ADF826
:10442000106020896946FFF711F823E7B8F10C0FF7
:104430007FF420AF0FCF6D460FC597E8030085E8E6
:104440000300E4689DF81530A288ADF8102023F031
:10445000050343F00503E2888DF81530E388ADF8D5
:1044600012306389A08941F2883C49F6404606FB38
:1044700003F30CFB02F26946CDE90223FEF7E6FFE7
:10448000154B1B68002B3FF4F5AE14490A68013B3D
:1044900093427FF6EFAE01320A60EBE6BC450020A6
:1044A000F24500200C44002062450020C145002058
:1044B000901B0020D8450020CC450020A4450020BA
:1044C000A8450020A04500205917B7D16645002017
:1044D0009045002094450020804500207C45002028
:1044E000B8F1090F46D0B8F10C0F61D0B8F1100F38
:1044F0007FF4C0AE564BE2881E68002E7FD055492F
:104500000B68013E9E4202D9581C08601E46524B61
:1045100003EB860133F826E04E8841F28830BC4632
:1045200000FB0EFE1644BCE80F006D460FC59CE86C
:10453000030085E803009DF81530CDF808E023F06E
:1045400007034FF0000843F00303B0B26946ADF82B
:1045500010808DF81530FEF779FFBB683F4A404860
:10456000404903F6C413A2FB03231B0BE28802801D
:104570000B807FE63C4B1D78002D7FF47BAE3B4AE1
:104580003B7D92F800C063453FF474AE0FCF6E469A
:104590000FC6E48897E80300073486E803006946FD
:1045A000A0B2ADF810508DF814C0FEF74FFF61E6D1
:1045B0002B78062B3FF45EAE7B7DDB077FF55AAE92
:1045C0000FCF6D460FC597E8030085E80300E48828
:1045D0009DF81530093423F007034FF4202C4FF0D9
:1045E000FF361F2743F005036946A0B2CDE90067F7
:1045F000CDF810C08DF81530FEF728FF3AE62B787D
:10460000062BAAD01A4B1B78002BA6D0BE46951DB0
:10461000BEE80F00EC46ACE80F009EE803008CE813
:1046200003009DF81530DFF84C80CDF8088023F0AA
:10463000070343F002036946A8B2ADF810608DF895
:104640001530FEF703FF88E70224C3E60124C1E624
:10465000804500207C4500206C4500205917B7D1CB
:104660006A4500206845002064450020921B002018
:10467000901B0020804F1200F0B58FB004460F460B
:1046800003F0E8FE294B00901B7800228DF80820EB
:10469000002B45D1264B274A1B78D35C264A246839
:1046A000127D03F03F0343EA821304AA8DF8093018
:1046B00003929CB397B3214E002501E0AF422DD069
:1046C000E3885A1E90B2262824D8A168087800F002
:1046D000030CBCF1030F1DD131F803C0BCF1000F76
:1046E00001D1B6F800C08DF81000BDF80400ADF897
:1046F00006C0013363F30E00D2B20131ADF80400FD
:104700000DF112008DF8112008F066FF01216846B6
:10471000FFF778FD24680135002CCFD10FB0F0BD34
:10472000064B1868FEF76EFF0346B7E7C245002048
:10473000D5450020F4450020D8450020C84500207C
:104740002DE9F0470C4686B0054603F083FE002CA9
:1047500000F0B180864C874AE36803441360637DB0
:104760009E072FD5002D40F07C81834FDFF85082CB
:104770003868824E824B98F800201B781A44814B8F
:1047800083FB021313445B1103EBC301013003EB02
:1047900081033860D21A764988F8002080B2FEF78B
:1047A0008FFE00286AD135B1637DDA0703D53B68F7
:1047B0009B0700F094803268A3681344336006B00E
:1047C000BDE8F087002DD0D06F4B1B78002B7FD138
:1047D000DFF8EC816D4A98F80030674FD05C6C4B85
:1047E000DFF8C4A11978A0F120060123C0F120024E
:1047F00003FA06F623FA02F2164303FA00F9DAE99D
:10480000003231B109EA030106EA0200014300F077
:10481000358149EA030316431F2E08BFB3F1FF3F5A
:10482000CAE9003600F021815A4B1B781BB3584B64
:104830001B78002B60D1637D590761D4564A5749D4
:10484000B2F800C00A8813F0010940F042815448D0
:10485000068838689445A0EB0606B6B200F01B81C6
:10486000ACEB020243F0040390B2637502F0B0FDBA
:10487000304602F0CBFD3868404E7BE73368228A31
:1048800041F2883101FB02333360FFF78DFB414B6E
:104890001B7833B1637DD80703D4424B4FF0FF320E
:1048A0001A60637D99073FF57EAF3F4B00200021E2
:1048B000C3E9000177E72F4B1B681B1AB3F1004FC8
:1048C00000F280802A4C637D9E073FF54BAF79E76D
:1048D000294FDFF8EC803868FEF794FE7FE7334D10
:1048E000334B04221146284608F0BDFE3268AB68FF
:1048F0001A44A2F5FA625FE7637DD80700F1A98048
:10490000637DDA07B7D45E07B5D5264B1B68033B3A
:104910000533B0D8274E264B04220321304608F039
:10492000A2FE7068244B154E00F6C410A3FB0030A5
:10493000637D43F00103000B637541F2883300FB94
:1049400003F380B2A36002F0EDFC1C4B174A196818
:10495000A36838689FED047B0B4482ED007B82EDF9
:10496000027B336006E700BFD0070000D0070000DD
:10497000D8450020C4450020C8450020CC45002073
:10498000D4450020A7C867DDC2450020F4450020BB
:10499000BC450020901B0020664500206845002093
:1049A0006A4500209045002088450020A845002049
:1049B000693F0000944500205917B7D1A045002059
:1049C000D5450020039B4B4A4B4D12782A7003F4C7
:1049D000004343F001038DF807204FF428560DF1F2
:1049E000070202A8CDE902430592ADF81060FFF777
:1049F000ABF9424B424A1A602B78042B3FF4DFAEEE
:104A0000404F3B78002B3FF4DAAE0DF107030593DE
:104A1000039B3D4A029403F40043146043F00103F6
:104A20003A4A03933A4B147002A8012449F64042D3
:104A30009A60ADF810602C708DF80740FFF784F98C
:104A4000344B3C701A221A6006B0BDE8F04701F002
:104A500091BE314AA36811683868304E0B44136028
:104A600088E6294FDFF8BC80DEE6637DD4E90001EB
:104A700043F00203637502F071FCD5E6236823EA74
:104A800009032360636823EA06036360FFF78CFA77
:104A9000DAE90032BDE60C2E7FF6EEAE23F0050318
:104AA00043F0050363751C4B1C4E1A6841F28833B2
:104AB00003FB0CF31A444846A360326002F088FC02
:104AC000484602F0A3FC1649088802F02BFC38681F
:104AD00050E6124E43F00403ACEB020263753368F8
:104AE00090B241F2883202FB0033336002F070FC76
:104AF00038683FE6F1450020F2450020981B002071
:104B0000D6BE898E61450020C8450020C0450020E2
:104B1000D8450020941B0020A0450020CC45002053
:104B200068450020D54500202DE9F04F95B001F0F3
:104B30008DF802F011FB9D4CDFF8E0B2DFF8E09257
:104B40009B4EDFF8E0820DF1380A2378002B52D01B
:104B5000012B00F0F281022B00F02C82033B072B8B
:104B600000F27C83DFE813F06001E0018D01DD00DD
:104B7000A10080006C00080000238BF8003089F849
:104B800000308C4B1F8803F065FC8B4B8B4A1B88D5
:104B9000059305468A488B49037804938A4B8B48D2
:104BA0001B7803938A4B1B7802938A4B1B780193E3
:104BB000894B1B7800931278884B01F081FC804868
:104BC000874B0278013283FB021313445B1103EB22
:104BD000C30103EB8103D21A237802700A2BB4D1EC
:104BE00005F007053D44642005FB00F0FDF7ACF936
:104BF0002378002BACD18BF8003089F80030794B4A
:104C00001B78002B00F0C48203F024FC10AA51464C
:104C10000546FEF7C7F8451BB5F5FA6F034694D471
:104C20009DF83810FF2900F0EB829DF840006E4A95
:104C30000093664B01936D4B1B6801F035F884E7D8
:104C4000624B01935D4B6A4A1B7800931178694A65
:104C500000238BF8003089F800301078594B4FF062
:104C6000FF3201F027F970E700238BF8003089F854
:104C70000030504B1F8803F0EDFB5F4B01935F4BFF
:104C80004E4A1B7803935E4B4E491B780293524B5E
:104C90001B7800931278514B05464C4801F054FBA9
:104CA0002378082B7FF451AF9AE7727D00235007D9
:104CB0008BF8003089F8003048BF1F46514B58BF71
:104CC000B7681B78002B40F079824F4B4F4A1B7816
:104CD000D55C504602F0EAFA0DAB04933B4B0193CE
:104CE000D8F80030CDF808A03B440093002303938C
:104CF000474A9AE8030001231370464B464A1B6853
:104D0000126810AF87E80300307D294601F0D0F922
:104D10002378072B074600F08F810D9802F0ECFAFC
:104D200013E7384B1A7800238BF8003089F80030ED
:104D30000D93002A40F02682334B344A1B78D35C13
:104D40000993504602F0B2FA314AD8F80070757DE6
:104D500000239AE8030013700122B3688BF8002047
:104D60000DF1400C07F5FA6215F004058CE803001C
:104D7000A2EB030200F08E810DAB0493134B039260
:104D80000193254A234B0097CDF808A01B68099989
:104D90001268307D01F0FEF8034622780D99062A4C
:104DA00000F02F81084602F0A7FACEE6F245002077
:104DB000D84500208E1B0020304500205F45002094
:104DC0002F4500205845002032450020493D000075
:104DD00033450020344500202E450020304400207B
:104DE000A7C867DD60450020D6BE898E9C1B0020C9
:104DF000A01B0020F0450020104400203545002075
:104E00002F440020C2450020D5450020F445002055
:104E1000BC450020D0450020981B00200C440020F9
:104E2000BD450020CC450020A14B1A7800238BF80B
:104E3000003089F80030002A40F0BA819D4B9E4A2C
:104E40001B78D15C737D9D4A01925F07D8F80020E2
:104E500058BFB3689A4F307D48BF00231344994A26
:104E6000009303231370984B984A1B68126801251E
:104E70003D7000F019FF397828466940FFF760FC63
:104E800063E60DF13303CDE905A3914B0493914BF8
:104E90000293914B0093914B914A1B780393914B52
:104EA0001B7801931178904A012310788BF8003019
:104EB0000025824B89F800504FF0FF3201F098F93D
:104EC0002378052B7FF441AEA842C0F2AB81784A2B
:104ED000CCBF01230023012813709DF833007C4AC6
:104EE000D4BF002301232946FFF7B8F8B3680E9A10
:104EF0001344A3F5FA63C8F8003001F06DF90DAB67
:104F00001393119B109503F4004343F00103119395
:104F1000062323708DF8343010A84FF42853ADF8D1
:104F20004830FEF711FF10E6002364208BF80030B4
:104F300089F80030FDF708F807E66C4B6C491A78E1
:104F400000230B706B498BF8003089F800300B7030
:104F500012B16948FEF75EFC684B584A1B68684905
:104F600023B1684B1B78002B00F02E81002000F04D
:104F7000EFFE2378012B7FF4E8AD5D4A127862B929
:104F80005C4A12784AB9594A1278002A40F05C818A
:104F90005C4A12780AB95B4A1370584B1B68042BA1
:104FA0007FF6D3ADB068800802F0F6F90220FEF774
:104FB000DFFFCAE54D4B54491A7800238BF80030C7
:104FC00089F800300B70002A5BD003F043FA10AA76
:104FD00051460546FDF7E6FE451BB5F5FA6F074657
:104FE0003FF5B3AD9DF83810FF2900F01E81334B1B
:104FF000009001939DF84000444B454A00F054FE58
:10500000A3E510A80993FFF737FB0D9802F074F998
:10501000D8F8005003F01EFA3E4A099B281A6FF494
:10502000FA654119914240F2D480B3FA83F14909FB
:105030000020FFF785FB88E50D9910A8FFF71CFB02
:105040000D9802F059F9D8F8005003F003FA314AEC
:105050002B1A6FF4FA61591891420BD82E4A127824
:1050600012B12E4A12782AB92D4AA2FB03235809FD
:10507000FCF76AFFB7FA87F149090120FFF760FBE7
:1050800063E5B0680D4A00F59C5108313C3800F0EA
:105090005FFE5AE523490B92A1FB03130020C3F3E3
:1050A0000F330021CDE90E010A93284658E000BFD6
:1050B000C2450020D5450020F4450020493D0000B0
:1050C000BC45002062450020D0450020981B0020F0
:1050D0003845002050450020584500205E450020FE
:1050E000A01B00205F450020F04500206045002007
:1050F000BF450020BE450020C0C62D00C845002089
:10510000C0570100C045002063450020555555009B
:10511000D6BE898E2DF8FF7FC1450020901B002050
:10512000CDCCCCCC5917B7D10DAB04934C4B0193DC
:10513000D8F800304B4ACDF808A03B4400930B9BB5
:10514000307D0999FB180393474B12681B6800F0E8
:1051500021FF6B1C002844D09DB20A9BAB425AD35E
:1051600041F2883303FB05F72378062BDCD0034696
:105170000A9AAA42BFF411AE3C480993FEF79EFA80
:10518000099B0AE63A4B1868FEF73CFA0990D8E505
:10519000334B01934FF0FF330093324A354B36497E
:1051A00036481B6812680978007800F07DFDCCE471
:1051B0002F4B1868FEF726FA014643E62C4B186879
:1051C000FEF720FA054684E54FF4E16000F0C0FDEB
:1051D000CFE62B4AA2FB00204009FCF7B5FE099B55
:1051E00023E7727D099042F004022846727502F0AE
:1051F000EFF8D8F80020099B3A44C8F80020B7E738
:105200001D4A11781D4A8DF838101078154A8DF80E
:10521000400012680CE5034614480993FEF74EFA65
:10522000099BBAE5FEF792FF8FE403F013F9381AF1
:105230008008FEF7EFFAB068094A00F59C51083182
:105240003C3800F085FD80E44FF42C630D48B360DA
:10525000FEF734FA0220FEF78BFE76E4FEE700BF8D
:10526000493D0000981B0020D045002014E10000BB
:10527000C84500209C1B0020A01B0020F0450020FA
:10528000CDCCCCCCECE0000070B5094C094D2046EB
:10529000FDF726FB4FF4806003226061E260256128
:1052A000224605490548BDE870400023FDF726BBAE
:1052B000744A00201C460020294B00001C4A002094
:1052C000054B1878032805D0063801288CBF00202C
:1052D0000120704701207047F24500202DE9F04F72
:1052E000B94D95F800C0BCF1030F89B0044603D056
:1052F000ACF10603012B04D8637A03F03F03242B9F
:1053000033D9A388C3F30E02012A0192134617D999
:10531000E26892F8018016785F1E474510460FDD5F
:1053200006F00F07022F06F00E090CD9062F0AD03F
:10533000042F40F08780A54A1360B9F1000F0DD00B
:1053400009B0BDE8F08FBCF1010F15D0BCF1020F20
:1053500051D0B9F1000FF3D1167810463146023022
:1053600009B0BDE8F04FFDF7FFBB0021204609B0B2
:10537000BDE8F04FFEF746BF637A03F03F03252BED
:1053800000F0E380262B00F08280272BE1D1DFF8AC
:1053900060C29CF80030002BDBD1DFF858A28C4BA8
:1053A0008C4893F800E0DAF80030D4F800B001330C
:1053B000CAF800300368C0F800B0ABEB030001236B
:1053C0008CF80030BEF1000F00D14008824B996884
:1053D00081420AD9BDF904109860A0EB4110B0F5E4
:1053E000BE6FB6D27D4B01221A70B9F1000F40F0AA
:1053F000A381E268B0E7617A01F03F012529A8D1D5
:10540000774A1078744A91682268002800F0A780D3
:10541000022F00F0A480A1F52071B1F5FF6FD4BF79
:1054200002EB010A02F5FF6A08330AEB431A03F0A4
:1054300011F8BAEB000A54BF4FEA9A000020FEF7B9
:1054400085F9D2E7032F40F0E780637A03F03F034A
:10545000252B05D0B9F1000F80D009B0BDE8F08F41
:10546000BCF1020FF6D15F4D2B78002BF2D1574BD8
:105470001868C00000F58770FEF788F901232B70CB
:10548000B9F1000F7FF45CAFE068067866E7DFF8FB
:1054900040C19CF80030002B66D0B9F1000F3FF4FA
:1054A0005BAF052F2ED14E4B1B78002B3FF448AF3E
:1054B000607AB8F1220F00F03F077FF441AF2978FE
:1054C000E268242F8CBF0023012308294FEA6616C7
:1054D00074D0DFF81881242F88F8003002D9F10742
:1054E00000F18A8021680E328009FEF7B7FD2B7823
:1054F00003F0FD03082B4AD0242F0BD83A4B01228E
:105500001A701DE7384B1B78002B3FF419AF082F9A
:105510007FF416AF059B03F40043002143F0010321
:105520000322CDE904130DF10F042A708DF80F202A
:105530004FF4285204A80794ADF81820FEF704FC95
:1055400009B0BDE8F04F01F015B9224B22681A608E
:1055500000F0A6FCB9F1000F7FF4F2AE49E7A1F527
:105560009B6101EB020A62E7DFF888A0DFF864E0E4
:10557000DAF8003020680133CAF80030DEF8003075
:10558000CEF80000C01A01238CF800301EE700F0AE
:1055900023FE059B03F4004307220DF10F000024B6
:1055A00043F001034FF428510790CDE904432A70DA
:1055B0008DF80F2004A8ADF81810BFE70B4906F0CE
:1055C00001060E708EE700BFF2450020941B0020FC
:1055D000BF450020B8450020D8450020C045002028
:1055E000911B002063450020BD450020C2450020DE
:1055F000BE450020C845002002F108000193FDF7D8
:10560000CFFAFF28019B04D0820644BF012288F80C
:105610000020607AE26865E7B9F1000F3FF49CAEC4
:10562000072F7FF43EAF464B1B78002B3FF488AE2C
:105630002B78012B3FF484AEB8F1000F3FF480AE1D
:10564000917801F03F05A8457FF67AAE11F03E0F44
:105650003FF476AED07800F00101002915BF10218B
:105660000A210A26042610F0020F08BF3146460719
:1056700048BF0131070744BF0231C9B210F010061C
:105680001DBF52180331C9B23246860644BF1231DB
:10569000C9B2400644BF0131C9B20239A942D8BFDC
:1056A000691C8845FFF64CAE002A3FF449AE092B31
:1056B0003FF446AE95781678537824685F2D4FEA0C
:1056C000052202F4F8524FEA551188BF012116F065
:1056D000800F13440CBF1E224FF4967202FB03F39B
:1056E000B3F5FA7FACBFA3F5FA73002306F03F00D1
:1056F00004EB8304C1B1134A42F2F033012918BF0D
:1057000013462246FDF774FA02F0A4FE201AB0F107
:10571000004F0CD844F61F6398420AD8800809B09D
:10572000BDE8F04FFEF776B843F2B063E9E700203A
:10573000F4E741F28830F2E7052F3FF4B4AEFFE51D
:1057400060450020F04F0100272800D9704730B590
:105750000D4687B013490A70039A134902F40042B8
:1057600008701248124923F07F4342F001020024DE
:10577000039203604FF428520DF1070302A805932A
:10578000ADF810200C708DF807400294FEF7DCFA9B
:10579000084A094B15601C7007B0BDE8304000F0A6
:1057A000E9BF00BFF0450020A01B00209C1B00208B
:1057B000F2450020981B002061450020014B187025
:1057C000704700BF911B002030B587B0144D039B7C
:1057D000144C1549154800222A6049F64045A56039
:1057E0000A7001240DF1070103F4004343F00103A3
:1057F0000470059102A84FF42851CDE90223ADF8B9
:1058000010108DF80740FEF79FFA0949094B0C70FC
:105810001A221A6007B0BDE8304000F0ABBF00BFED
:10582000C8450020D8450020C0450020F245002092
:1058300061450020941B0020014B800018707047C8
:10584000F1450020024B187000B17047FDF77CBB9A
:105850006045002030B585B00C46054602F0FAFDE3
:10586000C4F30E0402464FF4245368460092039595
:105870000194ADF80830FEF767FA05B030BD00BFFF
:10588000064B8446086810B41860054C8A889A80D4
:1058900084F800C05DF8044B704700BF58450020F5
:1058A0005F45002030B51C4B1C4C0546086818604D
:1058B00094468A889A801A4BDCF80000DCF80410C1
:1058C000DCF808201D70DCF80C30164D0FC487B0D2
:1058D000DCF81000039B2060BCF81410A1800522A6
:1058E00003F4004343F0010300212A708DF80720E0
:1058F00002A84FF428520DF10704CDE90213ADF8C8
:1059000010200594FEF720FA00F034FF07B0BDE840
:10591000304001F021BC00BF504500203845002038
:105920005E450020F245002030B51C46174B87B07D
:105930001870174B9DF828501A70164B16481D709A
:1059400007F04AFE2A462146144807F045FE039B0D
:105950001348082203F40043002143F001030270BE
:105960008DF8072002A84FF428520DF10704CDE965
:105970000213ADF810200594FEF7E6F900F0FAFEE8
:1059800007B0BDE8304001F0E7BB00BF354500205F
:105990002E4500202F4400203044002010440020D9
:1059A000F245002010B5194C2070194C194823708D
:1059B00086B0194B0270002418489DF820C01C7056
:1059C000174B80F800C0BDF824001880154807F078
:1059D00003FE039B14490A220DF1070003F4004360
:1059E00043F001030A7005904FF4285102A8CDE955
:1059F00002438DF80720ADF81010FEF7A5F900F06E
:105A0000B9FE06B0BDE8104001F0A6BB3445002049
:105A1000334500202E4500202F4500203245002030
:105A20003045002030440020F245002010B586B0FB
:105A30000D48039B092203F40043002143F00103B6
:105A400002708DF807200DF107044FF4285202A8C8
:105A5000CDE902130594ADF81020FEF775F906B0F4
:105A6000BDE8104000F086BEF2450020014B1880D2
:105A7000704700BF8E1B0020014B1870704700BF9D
:105A8000901B002000B51E4B1B7889B0032BCDE97D
:105A9000000102D0063B012B2FD8FDF755FD194B15
:105AA000002814BF86469E46BEE80F000DF1080C84
:105AB000ACE80F009EE80300019B134A8CE803004A
:105AC00003F01F03019300206B460021CDE9020182
:105AD000126893E803009DF81D30029001324FF0E8
